:020000040800F2
:10000000000002202D1700082116000827160008FE
:100010002D160008331600083916000800000000ED
:10002000000000000000000000000000B195000882
:100030003F160008000000000198000869980008B9
:100040007D1700087D1700087D1700087D17000840
:100050007D1700087D1700087D1700087D17000830
:100060007D1700087D1700087D1700087D17000820
:100070004D1600087D170008611600087D1700085E
:100080007D1700087D1700087D1700087D17000800
:100090007D1700087D1700087D1700087D170008F0
:1000A0007D170008751600087D1700087D170008E9
:1000B0007D1700087D1700087D1700087D170008D0
:1000C0007D1700087D1700087D1700087D170008C0
:1000D0007D1700087D1700087D17000889160008A5
:1000E0007D1700087D1700087D1700087D170008A0
:1000F0007D1700087D1700087D1700087D17000890
:100100007D1700087D1700087D1700087D1700087F
:100110007D1700087D1700087D1700087D1700086F
:100120007D1700087D1700087D1700087D1700085F
:100130007D1700087D1700087D1700087D1700084F
:100140007D1700087D1700087D1700087D1700083F
:100150007D1700087D1700087D1700087D1700082F
:100160007D1700087D1700087D1700087D1700081F
:100170007D1700087D1700087D17000800000000AB
:080180007D1700087D1700083F
:1001900010B5054C237833B9044B13B10448AFF3C1
:1001A00000800123237010BD8800002000000000A3
:1001B000A0F1000808B5034B1BB103490348AFF396
:1001C000008008BD000000008C000020A0F10008A5
:1001D000034613F8012B002AFBD1181A0138704787
:1001E00001F0FF01102A2BDB10F0070F08D010F8E8
:1001F000013B013A8B422DD010F0070F42B3F6D1EC
:10020000F0B441EA012141EA014122F007047FF004
:1002100000070023F0E80256083C85EA010586EA5B
:10022000010685FA47F5A3FA87F586FA47F6A5FA97
:1002300087F68EB9EED1F0BC01F0FF0102F00702A3
:1002400032B110F8013B013A83EA010313B1F8D14E
:100250000020704701387047002D06BF354603382F
:10026000073815F0010F07D1013015F4807F02BF68
:10027000013015F4C03F0130F0BC0138704700BFB9
:1002800053B94AB9002908BF00281CBF4FF0FF31FD
:100290004FF0FF3000F06EB9ADF1080C6DE904CEFF
:1002A00000F006F8DDF804E0DDE9022304B0704751
:1002B0002DE9F047089D04468C46002B40F08380D2
:1002C0008A42174647D9B2FA82F242B1C2F12000FF
:1002D00024FA00F09140974040EA010C94404FEA24
:1002E0001748230CBCFBF8F61FFA87FE08FB16C163
:1002F00043EA014306FB0EF1994209D9FB1806F1C6
:10030000FF3080F01981994240F21681023E3B4451
:100310005B1AA4B2B3FBF8F008FB103344EA0344C1
:1003200000FB0EFEA64509D93C1900F1FF3380F011
:100330000581A64540F2028102383C4440EA06406D
:10034000A4EB0E0400261DB1D4400023C5E90043F0
:100350003146BDE8F08702B9FFDEB2FA82F2002A28
:1003600050D1CB1B4FEA174E1FFA87F80126B3FB7B
:10037000FEFC210C0EFB1C3341EA034108FB0CF38D
:100380008B4207D979180CF1FF3002D28B4200F270
:10039000E9808446C91AA3B2B1FBFEF00EFB10112E
:1003A00043EA014408FB00F8A04507D93C1900F1D5
:1003B000FF3302D2A04500F2D9801846A4EB08040E
:1003C00040EA0C40BFE78B4209D9002D00F0B18014
:1003D0000026C5E9000130463146BDE8F087B3FA92
:1003E00083F6002E4AD18B4202D3824200F2B880BB
:1003F000841A61EB030101208C46002DA8D0C5E9C9
:10040000004CA5E7C2F1200320FA03F6974001FA59
:1004100002F04FEA174ED9403043030CB1FBFEF611
:100420001FFA87F80EFB161143EA014306FB08F199
:10043000994204FA02F409D9FB1806F1FF3C80F056
:100440008D80994240F28A80023E3B445B1A81B221
:10045000B3FBFEF00EFB103341EA034100FB08F34F
:100460008B4207D9791800F1FF3C73D28B4271D9C6
:1004700002383944CB1A40EA064678E7C6F1200C28
:1004800003FA06F422FA0CF31C4320FA0CF701FAE3
:1004900006F34FEA144E21FA0CF11F433B0CB1FB5B
:1004A000FEF91FFA84F80EFB191143EA014109FB1A
:1004B00008FA8A4502FA06F200FA06F308D961182A
:1004C00009F1FF3048D28A4546D9A9F102092144F1
:1004D000A1EB0A01BFB2B1FBFEF00EFB101147EA1F
:1004E000014700FB08F8B84507D9E71900F1FF31CB
:1004F0002ED2B8452CD90238274440EA0940A7EB50
:100500000807A0FB02894F45C64649461AD317D0B3
:100510005DB1B3EB0E0267EB010707FA0CFCF2408A
:100520004CEA0202F740C5E9002700263146BDE843
:10053000F0872E4628460BE70646E9E61846FDE614
:100540004345E5D2B8EB020E69EB04010138DFE761
:100550000846D2E760468DE78146B9E7664675E70B
:1005600030464AE7ACF1020C394413E702383C4408
:1005700024E700BF704700BF80B485B000AFF860CB
:10058000B9607A60FB68074A1A60BB68064A1A605D
:100590007B6880221A6000BF1437BD465DF8047B7B
:1005A000704700BFA40000205801002080B485B02F
:1005B00000AFF860B9607A60FB68074A1A60BB68F0
:1005C000064A1A607B684FF480721A6000BF1437C5
:1005D000BD465DF8047B7047580300200C040020E2
:1005E00080B400AFBFF34F8F00BF064BDB6803F44E
:1005F000E0620449044B1343CB60BFF34F8F00BF4D
:1006000000BFFDE700ED00E00400FA0580B582B010
:1006100000AF78607B681B68054A934204D1054BA4
:100620001B68184605F0B4FF00BF0837BD4680BD03
:1006300000480040E897002080B582B000AF7860A5
:100640007B681B68104A934219D1104B1B785A1CC7
:10065000D1B20E4A11701A460D4B19780D4B9954B0
:100660000D4B1B680A4A127811464FF4FA6218467D
:1006700005F0ECFF01220649084804F0B5FC00BF74
:100680000837BD4680BD00BF004800400C08002070
:10069000DC950020DC960020C08000206C800020CB
:1006A000B0B5BEB000AF01F06BF800F079FA00F021
:1006B000FFFB00F0E3FA00F0F7FA00F0D1FB00F0E6
:1006C000A5FB00F035FB00F069FB0AF0CFFF3220FC
:1006D00001F0CCF80AF0D6FF984B1B6F0DF0BEFB73
:1006E000974B5B881A06964B9B881B0403F47F0389
:1006F0001A43934BDB881B029BB21A43904B1B8916
:10070000DBB213438F4A13608D4BDB8C1A068C4B84
:100710001B8D1B0403F47F031A43894B5B891B0267
:100720009BB21A43864B9B89DBB21343864A136004
:10073000854B1A68834B1B68D31A0133834A1360B5
:100740007F4B1B8A1B021AB27D4BDB891BB2DBB2CB
:100750001BB213431BB29AB27D4B1A80794B1B68B4
:10076000B3F1006F1ED3774B1B68B3F1016F19D241
:10077000744B1A68754B1B681344B3F1016F11D2A7
:10078000724B1B68B3F5801F0CD26E4B1B681A4668
:100790006E4B1B68194610460DF0EEFF03466D4A7E
:1007A000136002E06B4B00221A60694B1B881A46EB
:1007B000684B1B689A4211D1654B1B88002B0DD0EA
:1007C00000214FF407700AF0A3FE012140F21D2022
:1007D0000AF09EFE5A4B01225A830CE000214FF48E
:1007E00007700AF095FE002140F21D200AF090FEED
:1007F000534B00225A83524B9B8B002B40F0C580F9
:100800004F4B5A8C4E4B9B8C9A4280F0BB804C4B8A
:100810005B8B012B4AD100214FF407700AF078FE60
:10082000002140F21D200AF073FE454B00225A833E
:10083000002140F21E200AF06BFE002140F21F2032
:100840000AF066FE3E4B00229A83434940F20F10A5
:100850000AF024FE414804F01AFB414803F0D5FA9F
:10086000404801F0E9F9404801F0E6F903F07CF86E
:1008700000F0A8FF3D4B1B6804331B683C4A136023
:100880003B4B1B681A463B4B1A60384B1B681B6876
:10089000C7F8F030D7F8F03083F3088800BF364B44
:1008A000364A9A60334B1B6898476EE0244B5B8B4B
:1008B000002B6AD107F1EF0319464FF409700AF0D3
:1008C000EDFD07F1EE03194640F225200AF0E6FDA2
:1008D00097F8EF301B021AB297F8EE301BB21343B1
:1008E0001BB2A7F8F630B7F8F6300133A7F8F630A8
:1008F000B7F8F6301B0A9BB2DBB287F8EF30B7F8D7
:10090000F630DBB287F8EE3097F8EF3019464FF447
:1009100009700AF0FDFD97F8EE30194640F22520E7
:100920000AF0F6FD642000F0A1FF154B1B684FF0A4
:10093000FF31184605F01AFDFFF752FE003802405D
:10094000B49D0020E4970020F4970020F897002041
:10095000DE970020EC970020C49400206C800020DB
:10096000AC7F00200C800020DC94002000000020E0
:10097000C89400204495002000ED00E0000001082C
:10098000D89500206F4B64221A600023C7F8E4302A
:100990000023C7F8E83007F1E403184605F0CEFC61
:1009A0000346694A13600023C7F8DC300023C7F808
:1009B000E03007F1DC03184605F0C0FC0346634A4B
:1009C00013600023C7F8D4300023C7F8D83007F1EC
:1009D000D4030121184605F04DFD03465C4A13601F
:1009E0000023C7F8CC300023C7F8D03007F1CC0380
:1009F0000121184605F03EFD0346564A1360564B4A
:100A0000C7F8C4300023C7F8C83007F1C403002278
:100A10000021184605F0DEFB0346504A1360504B98
:100A2000C7F8BC300023C7F8C03007F1BC03002270
:100A30000021184605F0CEFB03464A4A13604A4B94
:100A400007F1AC040FCB84E80F0007F1AC030021E1
:100A5000184605F0D3FD0346444A1360444B07F1A2
:100A600090041D460FCD0FC495E8070084E80700E9
:100A700007F190030021184605F04BFB03463D4A61
:100A800013603D4B07F174041D460FCD0FC495E86C
:100A9000070084E8070007F174030021184605F0F9
:100AA00038FB0346354A1360354B07F158041D46A1
:100AB0000FCD0FC495E8070084E8070007F158033D
:100AC0000021184605F025FB03462E4A13602E4BE5
:100AD00007F13C041D460FCD0FC495E8070084E8DC
:100AE000070007F13C030021184605F012FB0346FE
:100AF000264A1360264B07F120041D460FCD0FC474
:100B000095E8070084E8070007F120030021184654
:100B100005F0FFFA03461F4A13601F4B3C1D1D469C
:100B20000FCD0FC495E8070084E807003B1D0021A6
:100B3000184605F0EEFA0346184A136005F0E2FA8B
:100B4000FEE700BF04000020D4940020D8950020C8
:100B5000E8970020B0950020A9100008CC94002050
:100B6000C9100008D89400200CF20008C0800020B2
:100B70001CF20008A87F002038F20008AC95002085
:100B800054F20008A895002070F20008A4950020F7
:100B90008CF2000840950020A8F20008B0800020E8
:100BA00080B594B000AF07F1200330220021184631
:100BB0000DF04EFE07F10C0300221A605A609A6095
:100BC000DA601A610023BB602A4B1B6C294A43F090
:100BD00080531364274B1B6C03F08053BB60BB68CE
:100BE00000237B60244B1B68234A43F4804313603B
:100BF000214B1B6803F480437B607B680D233B62C1
:100C00004FF480337B620123BB6201237B630223A9
:100C1000BB634FF48003FB6319233B644FF4A87359
:100C20007B640223BB640423FB6407F120031846A2
:100C300002F03EF90346002B01D000F0A7FA0F2383
:100C4000FB6002233B6100237B614FF4A053BB6137
:100C50004FF48053FB6107F10C030521184602F0A5
:100C60009FFB0346002B01D000F090FA00BF5037E5
:100C7000BD4680BD003802400070004080B400AF27
:100C8000074B084A1A60064B00225A60044B40F694
:100C9000FF729A6000BFBD465DF8047B704700BFDD
:100CA000B48000200030004080B586B000AF3B1D0E
:100CB00000221A605A609A60DA601A6100233B6071
:100CC000194B1A4A1A60184B00225A60164B7F22A1
:100CD0009A60154BFF22DA60134B00221A61124B07
:100CE00000225A61104B00229A610F4802F00AFF5D
:100CF0000346002B01D000F049FA00233B7100238A
:100D00007B710023BB7100233B6100237B610123C6
:100D10003B7001237B700123BB700023FB7000BF7D
:100D20001837BD4680BD00BFB895002000280040A0
:100D300080B500AF174B184A1A60164B4FF48272F9
:100D40005A60144B00229A60124B0022DA60114B59
:100D500000221A610F4B00225A610E4B4FF40072B1
:100D60009A610C4B2022DA610A4B00221A62094B6D
:100D700000225A62074B00229A62064B0A22DA626C
:100D8000044802F0B9FF0346002B01D000F0FEF941
:100D900000BF80BDAC7F00200038004080B500AFB0
:100DA000184B194A1A60174B4FF482725A60154B50
:100DB0004FF400429A60134B0022DA60114B00227C
:100DC0001A61104B00225A610E4B4FF400729A6167
:100DD0000C4B2022DA610B4B00221A62094B0022D5
:100DE0005A62084B00229A62064B0A22DA620548D0
:100DF00002F082FF0346002B01D000F0C7F900BFCC
:100E000080BD00BF48950020003C004080B500AF89
:100E1000114B124A1A60104B4FF416525A600E4B87
:100E200000229A600C4B0022DA600B4B00221A6100
:100E3000094B0C225A61084B00229A61064B002292
:100E4000DA61054803F0D6FF0346002B01D000F01D
:100E50009DF900BF80BD00BF6C80002000480040AD
:100E600080B582B000AF00237B60104B1B6B0F4A34
:100E700043F4001313630D4B1B6B03F400137B60EF
:100E80007B68002205210C2000F0F0FD0C2000F012
:100E900009FE002205210E2000F0E8FD0E2000F0E2
:100EA00001FE00BF0837BD4680BD00BF00380240CC
:100EB00080B58CB000AF07F11C0300221A605A60A5
:100EC0009A60DA601A610023BB61714B1B6B704A38
:100ED00043F0100313636E4B1B6B03F01003BB61F5
:100EE000BB6900237B616A4B1B6B694A43F00403B7
:100EF0001363674B1B6B03F004037B617B69002367
:100F00003B61634B1B6B624A43F080031363604B8E
:100F10001B6B03F080033B613B690023FB605C4B70
:100F20001B6B5B4A43F001031363594B1B6B03F0CC
:100F30000103FB60FB680023BB60554B1B6B544AED
:100F400043F002031363524B1B6B03F00203BB60BD
:100F5000BB6800237B604E4B1B6B4D4A43F008037C
:100F600013634B4B1B6B03F008037B607B68002211
:100F700048F27E01474801F081FF002242F202015F
:100F8000454801F07BFF00220321444801F076FF31
:100F900001224FF48051424801F070FF00224FF4CB
:100FA0004061404801F06AFF01224FF400613A4875
:100FB00001F064FF00222021394801F05FFF7E2309
:100FC000FB6101233B6200237B620023BB6207F1CC
:100FD0001C0319462F4801F0B9FC42F60203FB61DD
:100FE00001233B6200237B620023BB6207F11C03E9
:100FF0001946294801F0AAFC0323FB6101233B6247
:1010000000237B620023BB6207F11C0319462348BF
:1010100001F09CFC4FF40043FB6101233B6202237F
:101020007B620023BB6207F11C031946194801F0DB
:101030008DFC4FF48153FB6101233B6200237B62F3
:101040000023BB6207F11C031946154801F07EFC22
:101050004FF44063FB6101233B6202237B62002368
:10106000BB6207F11C0319460E4801F06FFC012317
:10107000FB6100233B6200237B6207F11C031946DE
:10108000044801F063FC00BF3037BD4680BD00BF9F
:1010900000380240001002400008024000000240F8
:1010A00000040240000C024080B483B000AF7860BE
:1010B000044B00221A7000BF0C37BD465DF8047B5C
:1010C000704700BFB495002080B483B000AF786053
:1010D000044B01221A7000BF0C37BD465DF8047B3B
:1010E000704700BF0D08002080B582B000AF786067
:1010F000194B07221A70184B40225A70164B402287
:101100009A70154B0322DA7000224FF400611348E5
:1011100001F0B4FE642000F0A9FB00BF64230422A8
:101120000D490F4802F099FE0346002BF6D101222B
:101130004FF40061094801F0A1FE012000F096FB88
:1011400000224FF40061054801F098FE054B1B6832
:10115000184605F02AF8CBE7088000200008024076
:10116000489500200400002080B582B000AF786070
:101170007B681B68044A934201D100F057FB00BF13
:101180000837BD4680BD00BF0000014080B500AFFC
:10119000FFF726FA80B582B000AF00237B60124BC8
:1011A0005B6C114A43F4804353640F4B5B6C03F454
:1011B00080437B607B6800233B600B4B1B6C0A4ABF
:1011C00043F080531364084B1B6C03F080533B6067
:1011D0003B6800220F216FF0010000F047FC00BFC8
:1011E0000837BD4680BD00BF0038024080B586B0DC
:1011F00000AF786007F1080300221A605A609A6015
:10120000DA607B681B680C4A934211D10223BB60F1
:101210004FF480737B6107F10803184602F0C2FAAD
:101220000346002B01D0FFF7B1FF044B01221A60E7
:1012300000BF1837BD4680BD002800403C0E474225
:1012400080B58CB000AF786007F11C0300221A60F3
:101250005A609A60DA601A617B681B68334A93426D
:101260002DD10023BB61324B1B6C314A43F48043C8
:1012700013642F4B1B6C03F48043BB61BB690023D9
:101280007B612B4B1B6B2A4A43F002031363284BF1
:101290001B6B03F002037B617B694FF46043FB61CE
:1012A00002233B6200237B620323BB620523FB62B4
:1012B00007F11C0319461F4801F048FB31E07B6829
:1012C0001B681D4A93422CD100233B61184B1B6CB9
:1012D000174A43F400431364154B1B6C03F400439B
:1012E0003B613B690023FB60114B1B6B104A43F0D1
:1012F000040313630E4B1B6B03F00403FB60FB68DA
:101300004FF4A053FB6102233B6200237B62032363
:10131000BB620623FB6207F11C031946074801F074
:1013200015FB00BF3037BD4680BD00BF0038004010
:101330000038024000040240003C00400008024027
:1013400080B582B000AF78607B681B68114A934219
:101350000BD1114B1B6C104A23F4804313644FF4E0
:1013600060410E4801F08EFC0FE07B681B680C4A60
:1013700093420AD1084B1B6C074A23F400431364C1
:101380004FF4A051074801F07DFC00BF0837BD466F
:1013900080BD00BF00380040003802400004024019
:1013A000003C00400008024080B58AB000AF786081
:1013B00007F1140300221A605A609A60DA601A6119
:1013C0007B681B684C4A934240F0918000233B614C
:1013D0004A4B1B6C494A43F480231364474B1B6CF4
:1013E00003F480233B613B690023FB60434B1B6B91
:1013F000424A43F002031363404B1B6B03F00203AA
:10140000FB60FB684FF440637B610223BB610023F8
:10141000FB6103233B6207237B6207F11403194638
:10142000374801F093FA374B374A1A60354B4FF083
:1014300000625A60334B40229A60324B0022DA60DD
:10144000304B4FF480621A612E4B00225A612D4BB3
:1014500000229A612B4B0022DA612A4B00221A6289
:10146000284B00225A62274800F038FB0346002B25
:1014700001D0FFF78BFE7B68224A5A63214A7B68C2
:101480009363224B224A1A60204B4FF000625A604D
:101490001E4B00229A601D4B0022DA601B4B4FF45A
:1014A00080621A61194B00225A61184B00229A611E
:1014B000164B0022DA61154B00221A62134B0022F0
:1014C0005A62124800F00AFB0346002B01D0FFF7D6
:1014D0005DFE7B680D4A9A630C4A7B689363002229
:1014E0000521272000F0C2FA272000F0DBFA00BF18
:1014F0002837BD4680BD00BF00480040003802408C
:1015000000040240DC940020586002400C8000205F
:101510002860024080B582B000AF78607B681B68AD
:101520000F4A934217D10F4B1B6C0E4A23F48023B2
:1015300013644FF440610C4801F0A4FB7B685B6BC3
:10154000184600F079FB7B689B6B184600F074FB33
:10155000272000F0B5FA00BF0837BD4680BD00BFA8
:1015600000480040003802400004024080B58CB0C2
:1015700000AF78600023FB620023BB620022796821
:10158000192000F073FA192000F08CFA0023FB6098
:101590001F4B5B6C1E4A43F0010353641C4B5B6C96
:1015A00003F00103FB60FB6807F1100207F114036D
:1015B0001146184602F0C4F802F0AEF803465B008C
:1015C000FB62FB6A134AA2FB03239B0C013BBB6239
:1015D000114B124A1A60104B40F2E732DA600E4AA1
:1015E000BB6A53600C4B00221A610B4B00229A60BD
:1015F000094803F051F90346002B04D1064803F0D3
:10160000A5F9034600E0012318463037BD4680BDEA
:101610000038024083DE1B43FC970020000001409D
:1016200080B400AFFEE780B400AFFEE780B400AF47
:10163000FEE780B400AFFEE780B400AFFEE780B401
:1016400000AF00BFBD465DF8047B704780B500AFBA
:10165000024800F039FC00BF80BD00BF0C800020B4
:1016600080B500AF024800F02FFC00BF80BD00BF76
:10167000DC94002080B500AF024803F0D7F900BF2A
:1016800080BD00BFFC97002080B500AF024803F08A
:10169000DBFC00BF80BD00BF6C80002080B586B041
:1016A00000AF7860144A154BD31A7B617B693B61AC
:1016B000134B1B68002B02D1114B124A1A60104BBE
:1016C0001A687B6813443A699A4207D20DF086F88B
:1016D00003460C221A604FF0FF3309E0084B1B68E9
:1016E000FB60074B1A687B681344054A1360FB686C
:1016F00018461837BD4680BD0000022000040000D7
:1017000010080020509F002080B400AF064BD3F893
:101710008830054A43F47003C2F8883000BFBD46E4
:101720005DF8047B704700BF00ED00E0DFF834D0C7
:101730000D480E490E4A002302E0D458C450043329
:10174000C4188C42F9D30B4A0B4C002301E0136000
:101750000432A242FBD3FFF7D7FF0DF045F8FEF7A6
:101760009FFF70470000022000000020840000203E
:10177000A0F7000888000020509F0020FEE700002E
:1017800080B500AF0E4B1B680D4A43F40073136025
:101790000B4B1B680A4A43F480631360084B1B68B9
:1017A000074A43F480731360032000F054F90F20BC
:1017B000FFF7DCFEFFF7EEFC0023184680BD00BFFC
:1017C000003C024080B500AF134B4FF0FF321A626D
:1017D000114B00221A62104B4FF0FF325A620E4B2F
:1017E00000225A620C4B4FF0FF321A610A4B002262
:1017F0001A61094B4FF0FF325A61074B00225A61C0
:10180000054B4FF0FF329A61034B00229A6100F0C2
:1018100005F80023184680BD0038024080B400AFB0
:1018200000BFBD465DF8047B7047000080B400AF88
:10183000064B1B781A46064B1B681344044A136078
:1018400000BFBD465DF8047B704700BF100000205C
:101850004498002080B400AF034B1B681846BD4677
:101860005DF8047B704700BF4498002080B584B0C9
:1018700000AF7860FFF7EEFFB8607B68FB60FB6845
:10188000B3F1FF3F05D00A4B1B781A46FB6813449F
:10189000FB6000BFFFF7DEFF0246BB68D31AFA68A1
:1018A0009A42F7D800BF00BF1037BD4680BD00BFC9
:1018B0001000002080B485B000AF78607B6803F032
:1018C0000703FB600C4BDB68BB60BA684FF6FF0395
:1018D0001340BB60FB681A02BB68134343F0BF634D
:1018E00043F40033BB60044ABB68D36000BF1437C5
:1018F000BD465DF8047B704700ED00E080B400AFAA
:10190000044BDB681B0A03F007031846BD465DF86D
:10191000047B704700ED00E080B483B000AF034665
:10192000FB7197F90730002B0BDBFB7903F01F02EB
:10193000074997F907305B09012000FA02F241F8E4
:10194000232000BF0C37BD465DF8047B704700BF05
:1019500000E100E080B483B000AF0346FB7197F96B
:101960000730002B12DBFB7903F01F020A4997F9BD
:1019700007305B09012000FA02F2203341F82320EE
:10198000BFF34F8F00BFBFF36F8F00BF00BF0C3797
:10199000BD465DF8047B704700E100E080B483B091
:1019A00000AF03463960FB7197F90730002B0ADB63
:1019B0003B68DAB20C4997F907301201D2B20B44F6
:1019C00083F800230AE03B68DAB20849FB7903F0A8
:1019D0000F03043B1201D2B20B441A7600BF0C373E
:1019E000BD465DF8047B704700E100E000ED00E0DB
:1019F00080B489B000AFF860B9607A60FB6803F02A
:101A00000703FB61FB69C3F10703042B28BF042311
:101A1000BB61FB690433062B02D9FB69033B00E081
:101A200000237B614FF0FF32BB6902FA03F3DA4314
:101A3000BB681A407B699A404FF0FF317B6901FA1D
:101A400003F3D9437B680B40134318462437BD4644
:101A50005DF8047B704780B582B000AF786078682D
:101A6000FFF728FF00BF0837BD4680BD80B586B0B0
:101A700000AF0346B9607A60FB7300237B61FFF718
:101A80003DFF78617A68B9687869FFF7B1FF02466F
:101A900097F90F3011461846FFF780FF00BF18373F
:101AA000BD4680BD80B582B000AF0346FB7197F99B
:101AB00007301846FFF730FF00BF0837BD4680BD2E
:101AC00080B582B000AF0346FB7197F90730184626
:101AD000FFF740FF00BF0837BD4680BD80B586B028
:101AE00000AF786000237B61FFF7B4FE38617B684C
:101AF000002B01D1012399E07B68022283F8352075
:101B00007B68002283F834207B681B681A687B6836
:101B10001B6822F001021A600FE0FFF79BFE0246ED
:101B20003B69D31A052B08D97B6820225A657B684C
:101B3000032283F83520032378E07B681B681B6849
:101B400003F00103002BE8D17B681B681B687B61F5
:101B50007A69384B13407B617B685A687B689B6865
:101B60001A437B68DB681A437B681B691A437B68EE
:101B70005B691A437B689B691A437B68DB691A437C
:101B80007B681B6A13437A6913437B617B685B6ADA
:101B9000042B07D17B68DA6A7B681B6B13437A6975
:101BA00013437B617B681B687A691A607B681B68DA
:101BB0005B697B617B6923F007037B617B685B6A00
:101BC0007A6913437B617B685B6A042B17D17B685E
:101BD0009B6A7A6913437B617B68DB6A002B0ED0BA
:101BE000786800F05FFB0346002B08D07B6840223A
:101BF0005A657B68012283F83520012316E07B6853
:101C00001B687A695A61786800F016FB0346FB602E
:101C10007B68DB6D3F229A40FB689A607B680022FC
:101C20005A657B68012283F835200023184618374F
:101C3000BD4680BD3F8010F080B584B000AF7860B5
:101C40007B68002B01D1012350E07B6893F835308D
:101C5000DBB2022B01D1022348E07B681B681A68C3
:101C60007B681B6822F001021A607B681B680022F7
:101C70001A607B681B6800225A607B681B68002220
:101C80009A607B681B680022DA607B681B68002210
:101C90001A617B681B6821225A61786800F0CCFACF
:101CA0000346FB607B680022DA637B6800221A64CB
:101CB0007B6800225A647B6800229A647B68002259
:101CC000DA647B6800221A657B68DB6D3F229A40EC
:101CD000FB689A607B6800225A657B68002283F863
:101CE00035207B68002283F8342000231846103703
:101CF000BD4680BD80B586B000AFF860B9607A603F
:101D00003B600023FB75FB689B6D3B61FB6893F8B0
:101D10003430012B01D1022340E0FB68012283F81B
:101D20003420FB6893F83530DBB2012B2FD1FB68F0
:101D3000022283F83520FB6800225A653B687A68E6
:101D4000B968F86800F04AFAFB68DB6D3F229A40F8
:101D50003B699A60FB681B681A68FB681B6842F065
:101D600016021A60FB681B6C002B07D0FB681B680F
:101D70001A68FB681B6842F008021A60FB681B685F
:101D80001A68FB681B6842F001021A6005E0FB68F4
:101D9000002283F834200223FB75FB7D1846183798
:101DA000BD4680BD80B584B000AF78607B689B6D18
:101DB000FB60FFF74FFDB8607B6893F83530DBB20E
:101DC000022B08D07B6880225A657B68002283F84A
:101DD0003420012352E07B681B681A687B681B680B
:101DE00022F016021A607B681B685A697B681B68C0
:101DF00022F080025A617B681B6C002B03D17B6848
:101E00009B6C002B07D07B681B681A687B681B687B
:101E100022F008021A607B681B681A687B681B68DE
:101E200022F001021A6013E0FFF714FD0246BB68BE
:101E3000D31A052B0CD97B6820225A657B680322B4
:101E400083F835207B68002283F83420032315E0D3
:101E50007B681B681B6803F00103002BE4D17B68DF
:101E6000DB6D3F229A40FB689A607B68012283F811
:101E700035207B68002283F8342000231846103771
:101E8000BD4680BD80B483B000AF78607B6893F8B6
:101E90003530DBB2022B04D07B6880225A650123E7
:101EA0000CE07B68052283F835207B681B681A6884
:101EB0007B681B6822F001021A60002318460C3769
:101EC000BD465DF8047B704780B586B000AF786092
:101ED0000023BB60924B1B68924AA2FB03239B0A20
:101EE0007B617B689B6D3B613B691B68FB607B682A
:101EF000DB6D08229A40FB681340002B1AD07B68E8
:101F00001B681B6803F00403002B13D07B681B685D
:101F10001A687B681B6822F004021A607B68DB6D1C
:101F200008229A403B699A607B685B6D43F001022E
:101F30007B685A657B68DB6D01229A40FB68134021
:101F4000002B12D07B681B685B6903F08003002BB9
:101F50000BD07B68DB6D01229A403B699A607B68FD
:101F60005B6D43F002027B685A657B68DB6D04227F
:101F70009A40FB681340002B12D07B681B681B68DB
:101F800003F00203002B0BD07B68DB6D04229A4028
:101F90003B699A607B685B6D43F004027B685A651D
:101FA0007B68DB6D10229A40FB681340002B43D006
:101FB0007B681B681B6803F00803002B3CD07B6820
:101FC000DB6D10229A403B699A607B681B681B6836
:101FD00003F48023002B18D07B681B681B6803F474
:101FE0000023002B08D17B681B6C002B24D07B685E
:101FF0001B6C786898471FE07B689B6C002B1BD09C
:102000007B689B6C7868984716E07B681B681B6848
:1020100003F48073002B07D17B681B681A687B6808
:102020001B6822F008021A607B681B6C002B03D02F
:102030007B681B6C786898477B68DB6D20229A4030
:10204000FB681340002B00F08E807B681B681B68C8
:1020500003F01003002B00F086807B68DB6D2022EC
:102060009A403B699A607B6893F83530DBB2052B68
:1020700036D17B681B681A687B681B6822F01602E1
:102080001A607B681B685A697B681B6822F08002B3
:102090005A617B681B6C002B03D17B689B6C002B07
:1020A00007D07B681B681A687B681B6822F00802EF
:1020B0001A607B68DB6D3F229A403B699A607B68BF
:1020C000012283F835207B68002283F834207B6866
:1020D0001B6D002B7DD07B681B6D7868984778E07E
:1020E0007B681B681B6803F48023002B1CD07B6873
:1020F0001B681B6803F40023002B08D17B685B6C12
:10210000002B30D07B685B6C786898472BE07B684D
:10211000DB6B002B27D07B68DB6B7868984722E06D
:1021200008000020B5814E1B7B681B681B6803F408
:102130008073002B0FD17B681B681A687B681B6853
:1021400022F010021A607B68012283F835207B6838
:10215000002283F834207B68DB6B002B03D07B6884
:10216000DB6B786898477B685B6D002B32D07B68AF
:102170005B6D03F00103002B22D07B68052283F8FE
:1021800035207B681B681A687B681B6822F0010297
:102190001A60BB680133BB607A699A4207D37B68D7
:1021A0001B681B6803F00103002BF2D100E000BFA5
:1021B0007B68012283F835207B68002283F8342075
:1021C0007B68DB6C002B05D07B68DB6C78689847FC
:1021D00000E000BF1837BD4680BD00BF80B485B0A9
:1021E00000AFF860B9607A603B60FB681B681A68F2
:1021F000FB681B6822F480221A60FB681B683A683F
:102200005A60FB689B68402B08D1FB681B687A68A2
:102210009A60FB681B68BA68DA6007E0FB681B68B5
:10222000BA689A60FB681B687A68DA6000BF143786
:10223000BD465DF8047B704780B485B000AF786020
:102240007B681B68DBB2103B144AA2FB03231B090B
:10225000FB60134AFB6813441B781A467B68DA65F7
:10226000FB68032B09D97B681B6823F47F7323F079
:1022700003031A1D7B689A6507E07B681B6823F4DB
:102280007F7323F003037A6893657B689B6D184620
:102290001437BD465DF8047B704700BFABAAAAAAFD
:1022A000F4F4000880B485B000AF78600023FB73BD
:1022B0007B689B6ABB607B689B69002B1FD1BB68F6
:1022C000032B56D801A252F823F000BFDD220008EC
:1022D000EF220008DD220008732300087B68DB6A18
:1022E00003F08073002B46D00123FB7343E07B682F
:1022F000DB6AB3F1C07F40D10123FB733DE07B6813
:102300009B69B3F5005F21D1BB68032B37D801A2CD
:1023100052F823F0252300082B230008252300086A
:102320003D2300080123FB7330E07B68DB6A03F088
:102330008073002B25D00123FB7322E07B68DB6ACE
:10234000B3F1C07F1FD10123FB731CE0BB68022BDC
:1023500003D9BB68032B03D018E00123FB7315E0FE
:102360007B68DB6A03F08073002B0ED00123FB73C4
:102370000BE000BF0AE000BF08E000BF06E000BFBE
:1023800004E000BF02E000BF00E000BFFB7B184696
:102390001437BD465DF8047B704700BF80B586B03A
:1023A00000AFF860B960C7E900230123FB75234B38
:1023B0001B7E012B01D102233BE0204B01221A7628
:1023C0004CF2503000F070F80346FB75FB7D002B9B
:1023D0002BD1FB68002B05D13B781946B86800F07B
:1023E0001BF916E0FB68012B05D13B881946B8683C
:1023F00000F0EEF80DE0FB68022B05D13B681946B2
:10240000B86800F0C3F804E0D7E90023B86800F02A
:102410008BF84CF2503000F047F80346FB75084B40
:102420001B69074A23F001031361044B00221A764B
:10243000FB7D18461837BD4680BD00BF4898002078
:10244000003C024080B483B000AF0023FB710B4B13
:102450001B69002B0BDA094B094A5A60074B094AE2
:102460005A60064B1B69002B01DA0123FB71FB79D3
:1024700018460C37BD465DF8047B7047003C0240AF
:1024800023016745AB89EFCD80B400AF054B1B69D5
:10249000044A43F00043136100231846BD465DF82B
:1024A000047B7047003C024080B584B000AF786088
:1024B0000023FB601A4B0022DA61FFF7CBF9F860CA
:1024C00010E07B68B3F1FF3F0CD07B68002B07D096
:1024D000FFF7C0F90246FB68D31A7A689A4201D224
:1024E000032319E00F4BDB6803F48033002BE8D1A2
:1024F0000C4BDB6803F00103002B02D0094B0122D7
:10250000DA60084BDB6803F0F203002B03D000F025
:10251000A5F8012300E0002318461037BD4680BD12
:1025200048980020003C024080B485B000AFF860BD
:10253000C7E90023144B1B69134A23F4407313614A
:10254000114B1B69104A43F4407313610E4B1B6916
:102550000D4A43F001031361FB683A681A60BFF348
:102560006F8F00BFD7E900014FF000024FF000036A
:102570000A000023F968043113460B6000BF1437CA
:10258000BD465DF8047B7047003C024080B483B0D8
:1025900000AF786039600D4B1B690C4A23F440731F
:1025A00013610A4B1B69094A43F400731361074B1B
:1025B0001B69064A43F0010313617B683A681A609D
:1025C00000BF0C37BD465DF8047B7047003C0240FD
:1025D00080B483B000AF78600B467B800D4B1B69E5
:1025E0000C4A23F4407313610A4B1B69094A43F4F4
:1025F00080731361074B1B69064A43F001031361A3
:102600007B687A881A8000BF0C37BD465DF8047B72
:10261000704700BF003C024080B483B000AF7860D8
:102620000B46FB700C4B1B690B4A23F44073136180
:10263000094B094A1B691361074B1B69064A43F0A2
:10264000010313617B68FA781A7000BF0C37BD462E
:102650005DF8047B704700BF003C024080B400AFCF
:10266000274BDB6803F01003002B08D0254BDB69F8
:1026700043F01003234AD361214B1022DA60204B30
:10268000DB6803F02003002B08D01E4BDB6943F00E
:1026900008031C4AD3611A4B2022DA60184BDB680E
:1026A00003F04003002B08D0164BDB6943F0040312
:1026B000144AD361124B4022DA60114BDB6803F0FD
:1026C0008003002B08D00F4BDB6943F002030D4A57
:1026D000D3610B4B8022DA60094BDB6803F0020305
:1026E000002B08D0074BDB6943F02003054AD36178
:1026F000034B0222DA6000BFBD465DF8047B7047E1
:10270000003C02404898002080B584B000AF78605B
:1027100039600123FB730023BB60314B1B7E012B0F
:1027200001D1022358E02E4B01221A764CF2503090
:10273000FFF7BAFE0346FB73FB7B002B48D13B68D7
:102740004FF0FF321A607B681B68012B15D17B6844
:102750001B69DAB27B685B681946104600F044F8E2
:102760004CF25030FFF7A0FE0346FB731D4B1B6974
:102770001C4A23F00403136128E07B689B68BB605C
:102780001CE07B681B69DBB21946B86800F050F8A2
:102790004CF25030FFF788FE0346FB73114B1B6968
:1027A000104A23F0FA031361FB7B002B03D03B6834
:1027B000BA681A600AE0BB680133BB607B68DA68FC
:1027C0007B689B681344BA689A42DAD300F078F8C1
:1027D000034B00221A76FB7B18461037BD4680BD9E
:1027E00048980020003C024080B483B000AF03460C
:1027F0003960FB710D4B1B690C4A23F44073136164
:102800000A4B1B69094A43F004031361074B1A6919
:10281000FB791B021343054A43F48033136100BF65
:102820000C37BD465DF8047B704700BF003C02409A
:1028300080B485B000AF78600B46FB700023FB606E
:10284000FB78002B02D10023FB6010E0FB78012B0A
:1028500003D14FF48073FB6009E0FB78022B03D1B6
:102860004FF40073FB6002E04FF44073FB60134BC6
:102870001B69124A23F440731361104B1A690F4904
:10288000FB6813430B610D4B1B690C4A23F0F803E3
:1028900013610A4B1A697B68DB001343074A43F054
:1028A00002031361054B1B69044A43F4803313612F
:1028B00000BF1437BD465DF8047B7047003C024002
:1028C00080B400AF204B1B6803F40073002B17D0BB
:1028D0001D4B1B681C4A23F4007313601A4B1B68C2
:1028E000194A43F400631360174B1B68164A23F41C
:1028F00000631360144B1B68134A43F400731360A6
:10290000114B1B6803F48063002B17D00E4B1B6820
:102910000D4A23F4806313600B4B1B680A4A43F48F
:1029200080531360084B1B68074A23F480531360DD
:10293000054B1B68044A43F48063136000BFBD4627
:102940005DF8047B704700BF003C024080B489B052
:1029500000AF7860396000237B6100233B61002376
:10296000BB610023FB616BE10122FB6902FA03F307
:102970007B613B681B687A6913403B613A697B69FC
:102980009A4240F05A813B685B6803F00303012BD5
:1029900005D03B685B6803F00303022B30D17B68F2
:1029A0009B68BB61FB695B00032202FA03F3DB4314
:1029B000BA691340BB613B68DA68FB695B0002FAE5
:1029C00003F3BA691343BB617B68BA699A607B6899
:1029D0005B68BB610122FB6902FA03F3DB43BA695E
:1029E0001340BB613B685B681B0903F00102FB6994
:1029F00002FA03F3BA691343BB617B68BA695A6090
:102A00003B685B6803F00303032B17D07B68DB682C
:102A1000BB61FB695B00032202FA03F3DB43BA6983
:102A20001340BB613B689A68FB695B0002FA03F3E1
:102A3000BA691343BB617B68BA69DA603B685B685B
:102A400003F00303022B23D1FB69DA087B68083209
:102A500053F82230BB61FB6903F007039B000F2290
:102A600002FA03F3DB43BA691340BB613B681A699E
:102A7000FB6903F007039B0002FA03F3BA691343EF
:102A8000BB61FB69DA087B680832B96943F8221038
:102A90007B681B68BB61FB695B00032202FA03F3DE
:102AA000DB43BA691340BB613B685B6803F0030218
:102AB000FB695B0002FA03F3BA691343BB617B68ED
:102AC000BA691A603B685B6803F44033002B00F07E
:102AD000B4800023FB60604B5B6C5F4A43F480432F
:102AE00053645D4B5B6C03F48043FB60FB685B4AA3
:102AF000FB699B08023352F82330BB61FB6903F08A
:102B000003039B000F2202FA03F3DB43BA6913406D
:102B1000BB617B68524A93422BD07B68514A9342F7
:102B200025D07B68504A93421FD07B684F4A93421E
:102B300019D07B684E4A934213D07B684D4A93422A
:102B40000DD07B684C4A934207D07B684B4A934236
:102B500001D107230EE008230CE006230AE0052339
:102B600008E0042306E0032304E0022302E001233B
:102B700000E00023FA6902F0030292009340BA6970
:102B80001343BB613549FB699B080233BA6941F8BD
:102B900023203B4B9B68BB613B69DB43BA69134015
:102BA000BB613B685B6803F48013002B03D0BA69F8
:102BB0003B691343BB61324ABB699360304BDB68AE
:102BC000BB613B69DB43BA691340BB613B685B682F
:102BD00003F40013002B03D0BA693B691343BB61B4
:102BE000274ABB69D360264B5B68BB613B69DB430B
:102BF000BA691340BB613B685B6803F40033002B88
:102C000003D0BA693B691343BB611D4ABB6953607A
:102C10001B4B1B68BB613B69DB43BA691340BB615B
:102C20003B685B6803F48033002B03D0BA693B69CF
:102C30001343BB61124ABB691360FB690133FB613B
:102C4000FB690F2B7FF690AE00BF00BF2437BD4657
:102C50005DF8047B704700BF003802400038014037
:102C6000000002400004024000080240000C024044
:102C7000001002400014024000180240001C0240F4
:102C8000003C014080B487B000AF78603960002319
:102C90003B610023FB600023BB6000237B61CDE030
:102CA00001227B6902FA03F33B613A683B691340F6
:102CB000FB60FA683B699A4240F0BD80654A7B69D7
:102CC0009B08023352F82330BB607B6903F0030397
:102CD0009B000F2202FA03F3BA681340BB607B68C3
:102CE0005D4A93422BD07B685C4A934225D07B6837
:102CF0005B4A93421FD07B685A4A934219D07B6843
:102D0000594A934213D07B68584A93420DD07B684E
:102D1000574A934207D07B68564A934201D1072312
:102D20000EE008230CE006230AE0052308E0042354
:102D300006E0032304E0022302E0012300E0002375
:102D40007A6902F0030292009340BA689A4232D143
:102D5000494B1A68FB68DB43474913400B60464BFD
:102D60005A68FB68DB43444913404B60424BDA68C6
:102D7000FB68DB4340491340CB603F4B9A68FB68DC
:102D8000DB433D4913408B607B6903F003039B00E9
:102D90000F2202FA03F3BB602E4A7B699B080233C1
:102DA00052F82310BB68DA432A487B699B080A4023
:102DB000023340F823207B681A687B695B0003219B
:102DC00001FA03F3DB431A407B681A607B69DA0877
:102DD0007B68083253F822107B6903F007039B00DD
:102DE0000F2202FA03F3DB437A69D20819407B68A9
:102DF000083243F822107B68DA687B695B000321A4
:102E000001FA03F3DB431A407B68DA607B685A6897
:102E100001217B6901FA03F3DB431A407B685A60A6
:102E20007B689A687B695B00032101FA03F3DB434B
:102E30001A407B689A607B6901337B617B690F2B49
:102E40007FF62EAF00BF00BF1C37BD465DF8047B88
:102E5000704700BF003801400000024000040240FB
:102E600000080240000C0240001002400014024022
:102E700000180240001C0240003C014080B483B0B6
:102E800000AF78600B467B8013467B707B78002B0D
:102E900003D07A887B689A6103E07B881A047B6898
:102EA0009A6100BF0C37BD465DF8047B7047000097
:102EB00080B586B000AF78607B68002B01D101231C
:102EC00064E27B681B6803F00103002B75D0A34B01
:102ED0009B6803F00C03042B0CD0A04B9B6803F001
:102EE0000C03082B12D19D4B5B6803F48003B3F5F0
:102EF000800F0BD1994B1B6803F40033002B5BD080
:102F00007B685B68002B57D101233FE27B685B68DD
:102F1000B3F5803F06D1914B1B68904A43F4803350
:102F200013601DE07B685B68B3F5A02F0CD18B4B61
:102F30001B688A4A43F480231360884B1B68874AC6
:102F400043F4803313600BE0844B1B68834A23F403
:102F500080331360814B1B68804A23F48023136005
:102F60007B685B68002B13D0FEF774FC386108E0C7
:102F7000FEF770FC02463B69D31A642B01D9032388
:102F800004E2764B1B6803F40033002BF0D014E00E
:102F9000FEF760FC386108E0FEF75CFC02463B6926
:102FA000D31A642B01D90323F0E16C4B1B6803F4A3
:102FB0000033002BF0D100E000BF7B681B6803F0FA
:102FC0000203002B63D0654B9B6803F00C03002BBE
:102FD0000BD0624B9B6803F00C03082B1CD15F4B9A
:102FE0005B6803F48003002B16D15C4B1B6803F075
:102FF0000203002B05D07B68DB68012B01D0012385
:10300000C4E1564B1B6823F0F8027B681B69DB00A8
:10301000524913430B603AE07B68DB68002B20D0F9
:103020004F4B01221A60FEF715FC386108E0FEF7ED
:1030300011FC02463B69D31A022B01D90323A5E1F7
:10304000464B1B6803F00203002BF0D0434B1B6878
:1030500023F0F8027B681B69DB00404913430B60D7
:1030600015E03F4B00221A60FEF7F4FB386108E0E0
:10307000FEF7F0FB02463B69D31A022B01D903236A
:1030800084E1364B1B6803F00203002BF0D17B6810
:103090001B6803F00803002B30D07B685B69002BB2
:1030A00016D0304B01221A60FEF7D4FB386108E0DD
:1030B000FEF7D0FB02463B69D31A022B01D903234A
:1030C00064E1264B5B6F03F00203002BF0D015E0A8
:1030D000244B00221A60FEF7BDFB386108E0FEF7C2
:1030E000B9FB02463B69D31A022B01D903234DE1F8
:1030F0001A4B5B6F03F00203002BF0D17B681B6857
:1031000003F00403002B00F0A0800023FB75134B99
:103110001B6C03F08053002B0FD10023BB600F4BBF
:103120001B6C0E4A43F0805313640C4B1B6C03F072
:103130008053BB60BB680123FB750B4B1B6803F41A
:103140008073002B21D1084B1B68074A43F480731E
:103150001360FEF77FFB386111E000BF00380240CA
:1031600000004742800E474200700040FEF772FBAD
:1031700002463B69D31A022B01D9032306E1854B92
:103180001B6803F48073002BF0D07B689B68012BD5
:1031900006D1814B1B6F804A43F0010313671CE08B
:1031A0007B689B68052B0CD17B4B1B6F7A4A43F0E5
:1031B00004031367784B1B6F774A43F001031367CF
:1031C0000BE0754B1B6F744A23F001031367724BBE
:1031D0001B6F714A23F0040313677B689B68002B05
:1031E00015D0FEF737FB38610AE0FEF733FB0246E5
:1031F0003B69D31A41F28832934201D90323C5E0D7
:10320000654B1B6F03F00203002BEED014E0FEF7BA
:1032100021FB38610AE0FEF71DFB02463B69D31A29
:1032200041F28832934201D90323AFE05A4B1B6F1E
:1032300003F00203002BEED1FB7D012B05D1564B91
:103240001B6C554A23F0805313647B689B69002BE9
:1032500000F09B80504B9B6803F00C03082B5CD064
:103260007B689B69022B41D14C4B00221A60FEF710
:10327000F1FA386108E0FEF7EDFA02463B69D31A2D
:10328000022B01D9032381E0434B1B6803F0007339
:10329000002BF0D17B68DA697B681B6A1A437B6874
:1032A0005B6A9B011A437B689B6A5B08013B1B04BA
:1032B0001A437B68DB6A1B06374913434B60374B65
:1032C00001221A60FEF7C6FA386108E0FEF7C2FA7A
:1032D00002463B69D31A022B01D9032356E02E4B39
:1032E0001B6803F00073002BF0D04EE02B4B002244
:1032F0001A60FEF7AFFA386108E0FEF7ABFA024653
:103300003B69D31A022B01D903233FE0224B1B68F0
:1033100003F00073002BF0D137E07B689B69012B31
:1033200001D1012332E01C4B5B68FB607B689B6929
:10333000012B28D0FB6803F480027B68DB699A428A
:1033400021D1FB6803F03F027B681B6A9A421AD1C5
:10335000FA6847F6C07313407A68526A9201934242
:1033600011D1FB6803F440327B689B6A5B08013B28
:103370001B049A4207D1FB6803F070627B68DB6A2A
:103380001B069A4201D0012300E00023184618379B
:10339000BD4680BD007000400038024060004742DA
:1033A00080B584B000AF786039607B68002B01D1B4
:1033B0000123CCE0684B1B6803F007033A689A428C
:1033C0000CD9654B3A68D2B21A70634B1B6803F094
:1033D00007033A689A4201D00123B8E07B681B6872
:1033E00003F00203002B20D07B681B6803F004036A
:1033F000002B05D0594B9B68584A43F4E053936027
:103400007B681B6803F00803002B05D0534B9B68B7
:10341000524A43F460439360504B9B6823F0F002A0
:103420007B689B684D4913438B607B681B6803F086
:103430000103002B44D07B685B68012B07D1474B0D
:103440001B6803F40033002B19D101237FE07B6854
:103450005B68022B03D07B685B68032B07D13F4B73
:103460001B6803F00073002B09D101236FE03B4B75
:103470001B6803F00203002B01D1012367E0374BE7
:103480009B6823F003027B685B68344913438B60BD
:10349000FEF7E0F9F8600AE0FEF7DCF90246FB68A7
:1034A000D31A41F28832934201D903234FE02B4BC8
:1034B0009B6803F00C027B685B689B009A42EBD12F
:1034C000254B1B6803F007033A689A420CD2224B43
:1034D0003A68D2B21A70204B1B6803F007033A68AF
:1034E0009A4201D0012332E07B681B6803F0040399
:1034F000002B08D0194B9B6823F4E0527B68DB68F3
:10350000164913438B607B681B6803F00803002B8C
:1035100009D0124B9B6823F460427B681B69DB0077
:103520000E4913438B6000F021F802460B4B9B6859
:103530001B0903F00F030A49CB5C22FA03F3094A83
:103540001360094B1B681846FEF710F80023184655
:103550001037BD4680BD00BF003C0240003802402D
:10356000DCF40008080000200C000020B0B584B096
:1035700000AF002179600021F9600021396000214D
:10358000B9605249896801F00C0108290DD0082959
:1035900000F29480002902D0042903D08EE04C4B25
:1035A000BB608EE04B4BBB608BE04849496801F043
:1035B0003F0179604549496801F48001002924D020
:1035C00042494968890908464FF0000140F2FF145A
:1035D0004FF0000500EA040201EA05033D4901FB42
:1035E00003F0002101FB02F144183A49A2FB01015A
:1035F000631819467B681A464FF00003FCF740FE3B
:1036000002460B461346FB604AE0304B5B689B0961
:103610001A464FF0000340F2FF104FF0000102EA9B
:10362000000403EA0105204629464FF000024FF04E
:1036300000034B0143EAD063420110461946001BC8
:1036400061EB05014FF000024FF000038B0143EAEC
:1036500090638201121A63EB01034FF000004FF0F8
:103660000001D90041EA5271D00002460B461219FE
:1036700045EB03034FF000004FF00001990241EACF
:103680009251900202460B46104619467B681A4634
:103690004FF00003FCF7F4FD02460B461346FB60B7
:1036A0000A4B5B681B0C03F0030301335B003B60B8
:1036B000FA683B68B2FBF3F3BB6002E0044BBB600B
:1036C00000BFBB6818461037BD46B0BD0038024089
:1036D0000024F40040787D0180B400AF034B1B68E8
:1036E0001846BD465DF8047B704700BF0800002007
:1036F00080B500AFFFF7F0FF0246054B9B689B0AC1
:1037000003F007030349CB5C22FA03F3184680BD9C
:1037100000380240ECF4000880B500AFFFF7DCFF92
:103720000246054B9B685B0B03F007030349CB5C28
:1037300022FA03F3184680BD00380240ECF400087A
:1037400080B483B000AF786039607B680F221A6064
:10375000124B9B6803F003027B685A600F4B9B6817
:1037600003F0F0027B689A600C4B9B6803F4E05214
:103770007B68DA60094B9B68DB0803F4E0527B68E6
:103780001A61074B1B6803F007023B681A6000BF11
:103790000C37BD465DF8047B704700BF003802401F
:1037A000003C024080B586B000AF786000237B61AA
:1037B00000233B617B681B6803F00103002B05D1EC
:1037C0007B681B6803F00403002B35D0624B00229A
:1037D0001A60FEF73FF8786108E0FEF73BF8024612
:1037E0007B69D31A022B01D90323B0E05B4B1B6822
:1037F00003F00063002BF0D17B685B689A017B6863
:103800009B681B0755491343C1F88430524B012272
:103810001A60FEF71FF8786108E0FEF71BF8024611
:103820007B69D31A022B01D9032390E04B4B1B6811
:1038300003F00063002BF0D07B681B6803F00203E9
:10384000002B00F083800023FB60444B1B6C434A39
:1038500043F080531364414B1B6C03F08053FB60B7
:10386000FB683F4B1B683E4A43F480731360FDF7CF
:10387000F1FF786108E0FDF7EDFF02467B69D31A9E
:10388000022B01D9032362E0354B1B6803F48073DC
:10389000002BF0D0314B1B6F03F440733B613B694D
:1038A000002B2FD07B68DB6803F440733A699A429F
:1038B00028D02A4B1B6F23F440733B61294B012214
:1038C0001A60284B00221A60244A3B691367234B75
:1038D0001B6F03F00103012B14D1FDF7BBFF7861CF
:1038E0000AE0FDF7B7FF02467B69D31A41F288323E
:1038F000934201D903232AE0184B1B6F03F0020304
:10390000002BEED07B68DB6803F44073B3F5407F97
:103910000DD1124B9B6823F4F8127B68DB6823F00F
:10392000704323F440730D4913438B6005E00B4B48
:103930009B680A4A23F4F8139360084B1A6F7B685C
:10394000DB68C3F30B03054913430B6700231846D9
:103950001837BD4680BD00BF6800474200380240AE
:1039600000700040400E474280B582B000AFFDF7C6
:1039700071FF78605D4B1B685C4A43F00103136084
:1039800008E0FDF767FF02467B68D31A022B01D9D6
:103990000323A7E0554B1B6803F00203002BF0D074
:1039A000524B1B68514A43F080031360FDF752FFEE
:1039B00078604E4B00229A600AE0FDF74BFF02460A
:1039C0007B68D31A41F28832934201D9032389E0FC
:1039D000464B9B6803F00C03002BEED1FDF73AFF3A
:1039E0007860424B1B68414A23F45023136008E07F
:1039F000FDF730FF02467B68D31A642B01D90323FD
:103A000070E03A4B1B6803F40033002BF0D1FDF754
:103A100021FF7860354B1B68344A23F080731360B4
:103A200008E0FDF717FF02467B68D31A022B01D985
:103A3000032357E02D4B1B6803F00073002BF0D1DC
:103A4000FDF708FF7860294B1B68284A23F0806344
:103A5000136008E0FDF7FEFE02467B68D31A022BD6
:103A600001D903233EE0214B1B6803F00063002BC8
:103A7000F0D11E4B1E4A5A601C4B1E4AC3F88420CC
:103A80001A4BDB68194A23F4F853D360174BDB68F1
:103A9000164A23F40053D360144BDB68134A43F4F3
:103AA0001F03D360114BDB68104A43F40013D3604B
:103AB0000E4B5B6F0D4A23F0010353670B4B5B6F9B
:103AC0000A4A43F0807353670B4B0C4A1A600C4B45
:103AD0001B681846FDF74AFD0346002B01D0012361
:103AE00000E0002318460837BD4680BD003802407C
:103AF0001030000400300020080000200024F400F2
:103B00000C00002080B584B000AF78600123FB7307
:103B10007B68002B01D1012366E07B685B7FDBB211
:103B2000002B05D17B6800221A777868FDF75EFBD1
:103B30007B6802225A777B681B68CA225A627B68BC
:103B40001B6853225A62786800F07AF80346FB73C8
:103B5000FB7B002B2CD17B681B689B687A68126802
:103B600023F4E00323F0400393607B681B689968AB
:103B70007B685A687B681B691A437B685B691A43D8
:103B80007B681B680A439A607B681B687A68D26806
:103B90001A617B681B6819697B689B681A047B68DB
:103BA0001B680A431A61786800F081F80346FB73CA
:103BB000FB7B002B13D17B681B681A6C7B681B682E
:103BC00022F480221A647B681B68196C7B689A69EE
:103BD0007B681B680A431A647B6801225A777B68FA
:103BE0001B68FF225A62FB7B18461037BD4680BD1A
:103BF00080B584B000AF78600023FB607B681B68F1
:103C0000DA687B681B6822F0A002DA60FDF722FE0A
:103C1000F86009E0FDF71EFE0246FB68D31AB3F513
:103C20007A7F01D9032307E07B681B68DB6803F018
:103C30002003002BEED0002318461037BD4680BD70
:103C400080B584B000AF78600023BB600023FB73B5
:103C50007B681B68DB6803F04003002B22D17B6884
:103C60001B68DA687B681B6842F08002DA60FDF747
:103C7000F1FDB8600CE0FDF7EDFD0246BB68D31A1C
:103C8000B3F57A7F04D97B6804225A770123FB734A
:103C90007B681B68DB6803F04003002B02D1FB7BD1
:103CA000012BE8D1FB7B18461037BD4680BD80B59F
:103CB00084B000AF78600023FB737B681B68DA6810
:103CC0007B681B6822F08002DA607B681B689B6857
:103CD00003F02003002B0AD17868FFF789FF034621
:103CE000002B04D07B6804225A770123FB73FB7BF3
:103CF00018461037BD4680BD80B582B000AF7860F1
:103D00007B68002B01D101237BE07B685B6A002B81
:103D100008D17B685B68B3F5827F09D07B6800229D
:103D2000DA6105E07B6800221A617B6800225A6133
:103D30007B6800229A627B6893F85130DBB2002BDB
:103D400006D17B68002283F850207868FDF778FA66
:103D50007B68022283F851207B681B681A687B68A5
:103D60001B6822F040021A607B685B6803F4827271
:103D70007B689B6803F404431A437B68DB6803F4A5
:103D800000631A437B681B6903F002031A437B68D4
:103D90005B6903F001031A437B689B6903F40073BA
:103DA0001A437B68DB6903F038031A437B681B6A9C
:103DB00003F0800342EA03017B689B6A03F400522C
:103DC0007B681B680A431A607B689B691B0C03F0C5
:103DD00004017B685B6A03F010027B681B680A437E
:103DE0005A607B681B68DA697B681B6822F4006292
:103DF000DA617B6800225A657B68012283F85120D2
:103E0000002318460837BD4680BD80B582B000AF9C
:103E100078607B68002B01D101231AE07B680222C5
:103E200083F851207B681B681A687B681B6822F046
:103E300040021A607868FDF783FA7B6800225A65B1
:103E40007B68002283F851207B68002283F8502091
:103E5000002318460837BD4680BD80B588B000AF46
:103E6000F860B9603B601346FB800023FB77FB687A
:103E700093F85030012B01D1022326E1FB68012287
:103E800083F85020FDF7E6FCB861FB88FB82FB68F5
:103E900093F85130DBB2012B02D00223FB770BE108
:103EA000BB68002B02D0FB88002B02D10123FB77DB
:103EB00002E1FB68032283F85120FB6800225A6567
:103EC000FB68BA681A63FB68FA889A86FB68FA8806
:103ED000DA86FB6800229A63FB6800229A87FB68F7
:103EE0000022DA87FB6800225A64FB6800221A6409
:103EF000FB689B68B3F5004F0FD1FB681B681A681D
:103F0000FB681B6822F040021A60FB681B681A6895
:103F1000FB681B6842F480421A60FB681B681B68E0
:103F200003F04003402B07D0FB681B681A68FB684E
:103F30001B6842F040021A60FB68DB68B3F5006F53
:103F40004BD1FB685B68002B02D0FB8A012B3ED172
:103F5000FB681B6B1A88FB681B68DA60FB681B6BCD
:103F60009A1CFB681A63FB68DB8E9BB2013B9AB21A
:103F7000FB68DA862BE0FB681B689B6803F0020392
:103F8000022B12D1FB681B6B1A88FB681B68DA6076
:103F9000FB681B6B9A1CFB681A63FB68DB8E9BB289
:103FA000013B9AB2FB68DA8611E0FDF753FC02464A
:103FB000BB69D31A3A689A4203D83B68B3F1FF3F12
:103FC00002D13B68002B02D10323FB7774E0FB682E
:103FD000DB8E9BB2002BCED14CE0FB685B68002BE4
:103FE00002D0FB8A012B40D1FB681A6BFB681B686F
:103FF0000C3312781A70FB681B6B5A1CFB681A632F
:10400000FB68DB8E9BB2013B9AB2FB68DA862CE040
:10401000FB681B689B6803F00203022B13D1FB684B
:104020001A6BFB681B680C3312781A70FB681B6BE9
:104030005A1CFB681A63FB68DB8E9BB2013B9AB289
:10404000FB68DA8611E0FDF705FC0246BB69D31A6E
:104050003A689A4203D83B68B3F1FF3F02D13B680C
:10406000002B02D10323FB7726E0FB68DB8E9BB29B
:10407000002BCDD1BA693968F86800F0CBFB034654
:10408000002B02D0FB6820225A65FB689B68002B3E
:104090000AD100233B61FB681B68DB683B61FB685E
:1040A0001B689B683B613B69FB685B6D002B02D022
:1040B0000123FB7700E000BFFB68012283F8512059
:1040C000FB68002283F85020FB7F18462037BD464E
:1040D00080BD80B588B002AFF860B9603B60134620
:1040E000FB800023FB75FB685B68B3F5827F12D110
:1040F000FB689B68002B0ED1FB68042283F85120DB
:10410000FA883B6800931346BA68B968F86800F00B
:10411000F1F80346EAE0FB6893F85030012B01D137
:104120000223E3E0FB68012283F85020FDF792FBB5
:104130003861FB6893F85130DBB2012B02D00223C7
:10414000FB75CAE0BB68002B02D0FB88002B02D1B4
:104150000123FB75C1E0FB68042283F85120FB6852
:1041600000225A65FB68BA689A63FB68FA889A87E6
:10417000FB68FA88DA87FB6800221A63FB68002272
:104180009A86FB680022DA86FB6800221A64FB68C4
:1041900000225A64FB689B68B3F5004F0FD1FB689F
:1041A0001B681A68FB681B6822F040021A60FB68F3
:1041B0001B681A68FB681B6822F480421A60FB685F
:1041C0001B681B6803F04003402B07D0FB681B688B
:1041D0001A68FB681B6842F040021A60FB68DB68E3
:1041E000002B62D12EE0FB681B689B6803F0010383
:1041F000012B15D1FB681B6803F10C02FB689B6B5C
:104200001278D2B21A70FB689B6B5A1CFB689A63D7
:10421000FB68DB8F9BB2013B9AB2FB68DA8711E047
:10422000FDF718FB02463B69D31A3A689A4203D855
:104230003B68B3F1FF3F02D13B68002B02D103235F
:10424000FB754AE0FB68DB8F9BB2002BCBD131E0E2
:10425000FB681B689B6803F00103012B13D1FB680B
:104260001B68DA68FB689B6B92B21A80FB689B6BD9
:104270009A1CFB689A63FB68DB8F9BB2013B9AB286
:10428000FB68DA8711E0FDF7E5FA02463B69D31ACD
:104290003A689A4203D83B68B3F1FF3F02D13B68CA
:1042A000002B02D10323FB7517E0FB68DB8F9BB269
:1042B000002BCDD13A693968F86800F045FA034619
:1042C000002B02D0FB6820225A65FB685B6D002B37
:1042D00002D00123FB7500E000BFFB68012283F8D8
:1042E0005120FB68002283F85020FB7D18461837C8
:1042F000BD4680BD80B58CB000AFF860B9607A6013
:104300007B800123FB62002387F82B30FB6893F846
:104310005030012B01D102238AE1FB68012283F88E
:104320005020FDF797FA7862FB6893F8513087F8D0
:104330002330FB685B68FB617B887B8397F82330C5
:10434000012B0FD0FB69B3F5827F07D1FB689B6817
:10435000002B03D197F82330042B03D0022387F8D6
:104360002B305BE1BB68002B05D07B68002B02D0B3
:104370007B88002B03D1012387F82B304EE1FB68AB
:1043800093F85130DBB2042B03D0FB68052283F88D
:104390005120FB6800225A65FB687A689A63FB68C3
:1043A0007A88DA87FB687A889A87FB68BA681A6322
:1043B000FB687A88DA86FB687A889A86FB6800222E
:1043C0001A64FB6800225A64FB681B681B6803F0D0
:1043D0004003402B07D0FB681B681A68FB681B680A
:1043E00042F040021A60FB68DB68B3F5006F78D1D9
:1043F000FB685B68002B02D07B8B012B66D1FB68CE
:104400001B6B1A88FB681B68DA60FB681B6B9A1CC5
:10441000FB681A63FB68DB8E9BB2013B9AB2FB68B8
:10442000DA8653E0FB681B689B6803F00203022BEB
:104430001BD1FB68DB8E9BB2002B16D0FB6A012BD5
:1044400013D1FB681B6B1A88FB681B68DA60FB687A
:104450001B6B9A1CFB681A63FB68DB8E9BB2013BEB
:104460009AB2FB68DA860023FB62FB681B689B68D4
:1044700003F00103012B19D1FB68DB8F9BB2002BEA
:1044800014D0FB681B68DA68FB689B6B92B21A80D9
:10449000FB689B6B9A1CFB689A63FB68DB8F9BB283
:1044A000013B9AB2FB68DA870123FB62FDF7D2F980
:1044B00002467B6AD31ABA6B9A4207D8BB6BB3F138
:1044C000FF3F03D0032387F82B30A7E0FB68DB8E88
:1044D0009BB2002BA6D1FB68DB8F9BB2002BA1D136
:1044E0007CE0FB685B68002B02D07B8B012B6BD1DF
:1044F000FB681A6BFB681B680C3312781A70FB6838
:104500001B6B5A1CFB681A63FB68DB8E9BB2013B7A
:104510009AB2FB68DA8657E0FB681B689B6803F079
:104520000203022B1CD1FB68DB8E9BB2002B17D041
:10453000FB6A012B14D1FB681A6BFB681B680C33F8
:1045400012781A70FB681B6B5A1CFB681A63FB68B5
:10455000DB8E9BB2013B9AB2FB68DA860023FB62DA
:10456000FB681B689B6803F00103012B19D1FB68F2
:10457000DB8F9BB2002B14D0FB681B68DA68FB68EA
:104580009B6BD2B21A70FB689B6B5A1CFB689A63D8
:10459000FB68DB8F9BB2013B9AB2FB68DA87012391
:1045A000FB62FDF757F902467B6AD31ABA6B9A424F
:1045B00003D8BB6BB3F1FF3F02D1BB6B002B03D120
:1045C000032387F82B3029E0FB68DB8E9BB2002B9E
:1045D000A2D1FB68DB8F9BB2002B9DD17A6AB96BAD
:1045E000F86800F017F90346002B06D0012387F87E
:1045F0002B30FB6820225A6510E0FB689B68002B7B
:104600000BD100237B61FB681B68DB687B61FB6867
:104610001B689B687B617B6900E000BFFB6801222F
:1046200083F85120FB68002283F8502097F82B3044
:1046300018463037BD4680BD80B588B000AFF86001
:10464000B9603B601346FB71FDF704F90246BB6A93
:104650009B1A3A681344FB61FDF7FCF8B861394BCB
:104660001B685B011B0DFA6902FB03F37B6154E0DD
:104670003B68B3F1FF3F50D0FDF7ECF80246BB6951
:10468000D31AFA699A4202D9FB69002B3DD1FB6823
:104690001B685A68FB681B6822F0E0025A60FB68DE
:1046A0005B68B3F5827F11D1FB689B68B3F5004F5F
:1046B00004D0FB689B68B3F5806F07D1FB681B686B
:1046C0001A68FB681B6822F040021A60FB689B6A4C
:1046D000B3F5005F0FD1FB681B681A68FB681B68A5
:1046E00022F400521A60FB681B681A68FB681B689A
:1046F00042F400521A60FB68012283F85120FB68E3
:10470000002283F85020032317E07B69002B01D19E
:104710000023FB617B69013B7B61FB681B689A6836
:10472000BB681340BA689A420CBF01230023DBB276
:104730001A46FB799A429BD1002318462037BD4682
:1047400080BD00BF0800002080B586B002AFF860D1
:10475000B9607A60FB685B68B3F5827F11D1FB6852
:104760009B68B3F5004F04D0FB689B68B3F5806F7E
:1047700007D1FB681B681A68FB681B6822F04002BF
:104780001A60FB685B68B3F5827F2AD1FB689B687F
:10479000B3F5806F12D07B680093BB680022802144
:1047A000F868FFF749FF0346002B2DD0FB685B6DCF
:1047B00043F02002FB685A65032326E07B680093E0
:1047C000BB6800220121F868FFF736FF0346002B83
:1047D0001AD0FB685B6D43F02002FB685A65032327
:1047E00013E07B680093BB6800220121F868FFF7A3
:1047F00023FF0346002B07D0FB685B6D43F02002CC
:10480000FB685A65032300E0002318461037BD46B5
:1048100080BD000080B588B002AFF860B9607A60F2
:104820001B4B1B681B4AA2FB03235B0D4FF47A72E0
:1048300002FB03F37B61FB685B68B3F5827F12D1F7
:104840007B680093BB6800228021F868FFF7F4FEC4
:104850000346002B16D0FB685B6D43F02002FB681B
:104860005A6503230FE07B69002B0AD07B69013B6B
:104870007B61FB681B689B6803F08003802BF2D090
:1048800000E000BF002318461837BD4680BD00BFBA
:1048900008000020819F5E1680B582B000AF78606E
:1048A0007B68002B01D1012341E07B6893F83D3008
:1048B000DBB2002B06D17B68002283F83C207868AD
:1048C00000F039F87B68022283F83D207B681A6883
:1048D0007B6804331946104600F0D8F97B68012242
:1048E00083F846207B68012283F83E207B68012202
:1048F00083F83F207B68012283F840207B680122F7
:1049000083F841207B68012283F842207B680122E2
:1049100083F843207B68012283F844207B680122CE
:1049200083F845207B68012283F83D200023184648
:104930000837BD4680BD80B483B000AF786000BF4B
:104940000C37BD465DF8047B7047000080B485B02D
:1049500000AF78607B6893F83D30DBB2012B01D06B
:1049600001234EE07B68022283F83D207B681B68B0
:10497000DA687B681B6842F00102DA607B681B68BA
:10498000234A934222D07B681B68B3F1804F1DD02D
:104990007B681B681F4A934218D07B681B681E4ABD
:1049A000934213D07B681B681C4A93420ED07B68ED
:1049B0001B681B4A934209D07B681B68194A9342C3
:1049C00004D07B681B68184A934211D17B681B682E
:1049D0009B6803F00703FB60FB68062B10D07B6825
:1049E0001B681A687B681B6842F001021A6007E0C6
:1049F0007B681B681A687B681B6842F001021A60BA
:104A0000002318461437BD465DF8047B704700BF8D
:104A1000000001400004004000080040000C00407D
:104A200000040140004001400018004080B582B001
:104A300000AF78607B681B681B6903F00203022BE0
:104A400022D17B681B68DB6803F00203022B1BD1B9
:104A50007B681B686FF002021A617B6801221A777B
:104A60007B681B689B6903F00303002B03D0786805
:104A700000F0EEF805E0786800F0E0F8786800F003
:104A8000F1F87B6800221A777B681B681B6903F0CA
:104A90000403042B22D17B681B68DB6803F004034A
:104AA000042B1BD17B681B686FF004021A617B68C2
:104AB00002221A777B681B689B6903F44073002B02
:104AC00003D0786800F0C4F805E0786800F0B6F824
:104AD000786800F0C7F87B6800221A777B681B684B
:104AE0001B6903F00803082B22D17B681B68DB6875
:104AF00003F00803082B1BD17B681B686FF00802CA
:104B00001A617B6804221A777B681B68DB6903F0F3
:104B10000303002B03D0786800F09AF805E078686A
:104B200000F08CF8786800F09DF87B6800221A7716
:104B30007B681B681B6903F01003102B22D17B6874
:104B40001B68DB6803F01003102B1BD17B681B680C
:104B50006FF010021A617B6808221A777B681B6865
:104B6000DB6903F44073002B03D0786800F070F821
:104B700005E0786800F062F8786800F073F87B6808
:104B800000221A777B681B681B6903F00103012B65
:104B90000ED17B681B68DB6803F00103012B07D192
:104BA0007B681B686FF001021A617868FCF7DCFA19
:104BB0007B681B681B6903F08003802B0ED17B6828
:104BC0001B68DB6803F08003802B07D17B681B68C0
:104BD0006FF080021A61786800F002F97B681B6848
:104BE0001B6903F04003402B0ED17B681B68DB6818
:104BF00003F04003402B07D17B681B686FF0400235
:104C00001A61786800F038F87B681B681B6903F04C
:104C10002003202B0ED17B681B68DB6803F0200388
:104C2000202B07D17B681B686FF020021A6178681F
:104C300000F0CCF800BF0837BD4680BD80B483B01B
:104C400000AF786000BF0C37BD465DF8047B70474D
:104C500080B483B000AF786000BF0C37BD465DF80C
:104C6000047B704780B483B000AF786000BF0C371E
:104C7000BD465DF8047B704780B483B000AF7860B8
:104C800000BF0C37BD465DF8047B704780B485B02B
:104C900000AF786039607B681B68FB607B68404AC6
:104CA000934213D07B68B3F1804F0FD07B683D4AAD
:104CB00093420BD07B683C4A934207D07B683B4AC7
:104CC000934203D07B683A4A934208D1FB6823F0B1
:104CD0007003FB603B685B68FA681343FB607B68AA
:104CE0002F4A93422BD07B68B3F1804F27D07B684B
:104CF0002C4A934223D07B682B4A93421FD07B6877
:104D00002A4A93421BD07B68294A934217D07B687A
:104D1000284A934213D07B68274A93420FD07B687E
:104D2000264A93420BD07B68254A934207D07B6882
:104D3000244A934203D07B68234A934208D1FB68FC
:104D400023F44073FB603B68DB68FA681343FB6045
:104D5000FB6823F080023B685B691343FB607B6860
:104D6000FA681A603B689A687B68DA623B681A687E
:104D70007B689A627B680A4A934203D07B680C4A3C
:104D8000934203D13B681A697B681A637B680122EE
:104D90005A6100BF1437BD465DF8047B704700BF01
:104DA000000001400004004000080040000C0040EA
:104DB000000401400040014000440140004801401F
:104DC00000180040001C00400020004080B483B068
:104DD00000AF786000BF0C37BD465DF8047B7047BC
:104DE00080B483B000AF786000BF0C37BD465DF87B
:104DF000047B704780B582B000AF78607B68002B81
:104E000001D101233FE07B6893F83D30DBB2002BFA
:104E100006D17B68002283F83C207868FCF7C4FA4E
:104E20007B68242283F83D207B681B68DA687B68F6
:104E30001B6822F40052DA60786800F071FF7B682A
:104E40001B681A697B681B6822F490421A617B68B0
:104E50001B685A697B681B6822F02A025A617B68CA
:104E60001B68DA687B681B6842F40052DA607B6872
:104E700000221A647B68202283F83D207B68202270
:104E800083F83E20002318460837BD4680BD80B514
:104E900082B000AF78607B68002B01D1012321E054
:104EA0007B68242283F83D207B681B68DA687B6876
:104EB0001B6822F40052DA607868FCF72BFB7B68F1
:104EC00000221A647B68002283F83D207B68002260
:104ED00083F83E207B6800221A637B68002283F8F7
:104EE0003C20002318460837BD4680BD80B58CB0F5
:104EF00000AFF860B9601346FB80FB6893F83D3063
:104F0000DBB2202B65D1BB68002B02D0FB88002BC5
:104F100001D101235EE0FB6893F83C30012B01D105
:104F2000022357E0FB68012283F83C20BA68FB6843
:104F30001A62FB68FA889A84FB68FA88DA84FB684C
:104F400000221A64FB68212283F83D20FB685B6B1A
:104F5000224ADA63FB685B6B214A1A64FB685B6B6D
:104F6000204ADA64FB685B6B00221A6507F10803CC
:104F7000FB62FB68586BFB6A1968FB681B680433AB
:104F80001A46FB88FCF7B6FEFB681B686FF0400210
:104F90001A60FB68002283F83C20FB681B6814330E
:104FA000BB61BB6953E8003F7B617B6943F08003D1
:104FB000BB62FB681B681433BA6A7A623B62396A67
:104FC0007A6A41E80023FB61FB69002BE5D10023ED
:104FD00000E0022318463037BD4680BDB9550008B1
:104FE00053560008CB57000880B584B000AFF86076
:104FF000B9601346FB80FB6893F83E30DBB2202B90
:105000001DD1BB68002B02D0FB88002B01D10123EE
:1050100016E0FB6893F83C30012B01D102230FE02E
:10502000FB68012283F83C20FB6800221A63FB889E
:105030001A46B968F86800F013FC034600E0022342
:1050400018461037BD4680BD80B5BAB000AF786055
:105050007B681B681B68C7F8E4307B681B68DB68EB
:10506000C7F8E0307B681B685B69C7F8DC30002359
:10507000C7F8D8300023C7F8D430D7F8E43003F0AD
:105080000F03C7F8D830D7F8D830002B0FD1D7F896
:10509000E43003F02003002B09D0D7F8E03003F010
:1050A0002003002B03D0786800F07FFD56E2D7F88C
:1050B000D830002B00F0DE80D7F8DC3003F001039D
:1050C000002B06D1D7F8E03003F49073002B00F0EA
:1050D000D180D7F8E43003F00103002B0BD0D7F8D0
:1050E000E03003F48073002B05D07B681B6C43F029
:1050F00001027B681A64D7F8E43003F00403002B44
:105100000BD0D7F8DC3003F00103002B05D07B680F
:105110001B6C43F002027B681A64D7F8E43003F09A
:105120000203002B0BD0D7F8DC3003F00103002B77
:1051300005D07B681B6C43F004027B681A64D7F8C7
:10514000E43003F00803002B11D0D7F8E03003F06F
:105150002003002B05D1D7F8DC3003F00103002B2E
:1051600005D07B681B6C43F008027B681A647B687F
:105170001B6C002B00F0ED81D7F8E43003F0200326
:10518000002B08D0D7F8E03003F02003002B02D02A
:10519000786800F00AFD7B681B685B6903F04003D8
:1051A000402B0CBF01230023DBB2C7F8D4307B684F
:1051B0001B6C03F00803002B03D1D7F8D430002B6D
:1051C0004FD0786800F012FC7B681B685B6903F0C5
:1051D0004003402B41D17B681B681433C7F89C30D7
:1051E000D7F89C3053E8003FC7F89830D7F898308C
:1051F00023F04003C7F8D0307B681B681433D7F81E
:10520000D020C7F8A820C7F8A430D7F8A410D7F842
:10521000A82041E80023C7F8A030D7F8A030002B21
:10522000D9D17B689B6B002B13D07B689B6B7D4A2D
:105230001A657B689B6B1846FCF724FE0346002B1F
:1052400016D07B689B6B1B6D7A68926B10469847F3
:105250000EE0786800F09AF90AE0786800F096F9B4
:1052600006E0786800F092F97B6800221A6470E129
:1052700000BF6EE17B681B6B012B40F04A81D7F8C1
:10528000E43003F01003002B00F04381D7F8E03046
:1052900003F01003002B00F03C810023BB607B680F
:1052A0001B681B68BB607B681B685B68BB60BB6876
:1052B0007B681B685B6903F04003402B40F0B480BF
:1052C0007B689B6B1B685B68A7F8BE30B7F8BE3085
:1052D000002B00F040817B689B8DB7F8BE209A427E
:1052E00080F039817B68B7F8BE20DA857B689B6BDC
:1052F000DB69B3F5807F00F088807B681B680C3326
:10530000C7F88830D7F8883053E8003FC7F88430B2
:10531000D7F8843023F48073C7F8B8307B681B68F3
:105320000C33D7F8B820C7F89420C7F89030D7F8D6
:105330009010D7F8942041E80023C7F88C30D7F8B4
:105340008C30002BD9D17B681B6814337B677B6F53
:1053500053E8003F3B673B6F23F00103C7F8B430CD
:105360007B681B681433D7F8B420C7F88020FB672C
:10537000F96FD7F8802041E80023BB67BB6F002B93
:10538000E1D17B681B6814333B663B6E53E8003FFA
:10539000FB65FB6D23F04003C7F8B0307B681B68EA
:1053A0001433D7F8B020FA66BB66B96EFA6E41E8DE
:1053B00000237B667B6E002BE3D17B68202283F881
:1053C0003E207B6800221A637B681B680C33FB64F9
:1053D000FB6C53E8003FBB64BB6C23F01003C7F8C1
:1053E000AC307B681B680C33D7F8AC20BA657B65A2
:1053F000796DBA6D41E800233B653B6D002BE3D12D
:105400007B689B6B1846FCF7CDFC7B689A8D7B68AC
:10541000DB8D9BB2D31A9BB21946786800F0C0F8B6
:1054200099E000BFB35A00087B689A8D7B68DB8DDA
:105430009BB2D31AA7F8CE307B68DB8D9BB2002BD2
:1054400000F08B80B7F8CE30002B00F086807B68B0
:105450001B680C33BB63BB6B53E8003F7B637B6B08
:1054600023F49073C7F8C8307B681B680C33D7F8F7
:10547000C8207A643B64396C7A6C41E80023FB6392
:10548000FB6B002BE3D17B681B6814337B627B6A68
:1054900053E8003F3B623B6A23F00103C7F8C43086
:1054A0007B681B681433D7F8C4203A63FB62F96A3F
:1054B0003A6B41E80023BB62BB6A002BE3D17B68F7
:1054C000202283F83E207B6800221A637B681B68D9
:1054D0000C333B613B6953E8003FFB60FB6823F002
:1054E0001003C7F8C0307B681B680C33D7F8C020A6
:1054F000FA61BB61B969FA6941E800237B617B69A4
:10550000002BE3D1B7F8CE301946786800F048F8A0
:1055100023E0D7F8E43003F08003002B09D0D7F85C
:10552000E03003F08003002B03D0786800F0D5FA58
:1055300014E0D7F8E43003F04003002B0ED0D7F886
:10554000E03003F04003002B08D0786800F015FB32
:1055500004E000BF02E000BF00E000BFE837BD4646
:1055600080BD00BF80B483B000AF786000BF0C374F
:10557000BD465DF8047B704780B483B000AF7860AF
:1055800000BF0C37BD465DF8047B704780B483B024
:1055900000AF786000BF0C37BD465DF8047B7047F4
:1055A00080B483B000AF78600B467B8000BF0C37BF
:1055B000BD465DF8047B704780B590B000AF786061
:1055C0007B689B6BFB637B681B681B6803F48073C1
:1055D000002B37D1FB6B0022DA84FB6B1B68143382
:1055E0007B627B6A53E8003F3B623B6A23F08003A7
:1055F000BB63FB6B1B681433BA6B3A63FB62F96ADB
:105600003A6B41E80023BB62BB6A002BE5D1FB6B20
:105610001B680C333B613B6953E8003FFB60FB6850
:1056200043F040037B63FB6B1B680C337A6BFA61BE
:10563000BB61B969FA6941E800237B617B69002B92
:10564000E5D102E0F86BFAF7E1FF00BF4037BD4655
:1056500080BD80B584B000AF78607B689B6BFB60D9
:10566000F868FFF77FFF00BF1037BD4680BD80B5EB
:105670009CB000AF78607B689B6BFB667B681B68A7
:105680001B6803F48073002B72D1FB6E0022DA8555
:10569000FB6E1B680C33FB64FB6C53E8003FBB6480
:1056A000BB6C23F48073BB66FB6E1B680C33BA6E55
:1056B000BA657B65796DBA6D41E800233B653B6D4A
:1056C000002BE5D1FB6E1B681433BB63BB6B53E847
:1056D000003F7B637B6B23F001037B66FB6E1B68E3
:1056E00014337A6E7A643B64396C7A6C41E8002337
:1056F000FB63FB6B002BE5D1FB6E1B6814337B62F5
:105700007B6A53E8003F3B623B6A23F040033B6601
:10571000FB6E1B6814333A6E3A63FB62F96A3A6BAC
:1057200041E80023BB62BB6A002BE5D1FB6E20225F
:1057300083F83E20FB6E1B6B012B19D1FB6E1B689F
:105740000C333B613B6953E8003FFB60FB6823F08F
:105750001003FB65FB6E1B680C33FA6DFA61BB61CD
:10576000B969FA6941E800237B617B69002BE5D1C7
:10577000FB6E1B6B012B06D1FB6E9B8D1946F86EE1
:10578000FFF70EFF02E0F86EFAF756FF00BF703722
:10579000BD4680BD80B584B000AF78607B689B6BF0
:1057A000FB60FB681B6B012B08D1FB689B8D5B08C2
:1057B0009BB21946F868FFF7F3FE02E0F868FFF7BE
:1057C000DBFE00BF1037BD4680BD80B584B000AFA2
:1057D00078600023FB607B689B6BBB60BB681B68C9
:1057E0005B6903F08003802B0CBF01230023DBB235
:1057F000FB60BB6893F83D30DBB2212B08D1FB681E
:10580000002B05D0BB680022DA84B86800F0C6F827
:10581000BB681B685B6903F04003402B0CBF01238E
:105820000023DBB2FB60BB6893F83E30DBB2222B77
:1058300008D1FB68002B05D0BB680022DA85B86868
:1058400000F0D4F8BB681B6C43F01002BB681A640C
:10585000B868FFF79BFE00BF1037BD4680BD000053
:1058600080B598B000AFF860B9601346FB80BA68A5
:10587000FB689A62FB68FA889A85FB6800221A64C2
:10588000FB68222283F83E20FB689B6B404ADA6368
:10589000FB689B6B3F4A1A64FB689B6B3E4ADA6469
:1058A000FB689B6B00221A6507F10803FB65FB6828
:1058B000986BFB681B6804331946FB6D1A68FB88FC
:1058C000FCF718FA00233B61FB681B681B683B610F
:1058D000FB681B685B683B613B69FB68002283F8DF
:1058E0003C20FB681B69002B19D0FB681B680C333C
:1058F0003B643B6C53E8003FFB63FB6B43F48073FA
:10590000BB65FB681B680C33BA6DFA64BB64B96C89
:10591000FA6C41E800237B647B6C002BE5D1FB68CB
:105920001B681433FB62FB6A53E8003FBB62BB6A2F
:1059300043F001037B65FB681B6814337A6DBA631F
:105940007B63796BBA6B41E800233B633B6B002BB5
:10595000E5D1FB681B681433BB61BB6953E8003FAA
:105960007B617B6943F040033B65FB681B68143334
:105970003A6D7A623B62396A7A6A41E80023FB61D8
:10598000FB69002BE5D1002318466037BD4680BD7A
:105990006F56000895570008CB57000880B489B0AF
:1059A00000AF78607B681B680C33FB60FB6853E8D2
:1059B000003FBB60BB6823F0C003FB617B681B68D2
:1059C0000C33FA69BA617B617969BA6941E80023ED
:1059D0003B613B69002BE5D17B68202283F83D20A9
:1059E00000BF2437BD465DF8047B704780B495B096
:1059F00000AF78607B681B680C337B637B6B53E87C
:105A0000003F3B633B6B23F49073FB647B681B6834
:105A10000C33FA6C3A64FB63F96B3A6C41E800238F
:105A2000BB63BB6B002BE5D17B681B6814333B6207
:105A30003B6A53E8003FFB61FB6923F00103BB6451
:105A40007B681B681433BA6CFA62BB62B96AFA6A83
:105A500041E800237B627B6A002BE5D17B681B6BEE
:105A6000012B19D17B681B680C33FB60FB6853E882
:105A7000003FBB60BB6823F010037B647B681B683E
:105A80000C337A6CBA617B617969BA6941E80023A9
:105A90003B613B69002BE5D17B68202283F83E20E7
:105AA0007B6800221A6300BF5437BD465DF8047B53
:105AB000704780B584B000AF78607B689B6BFB60FB
:105AC000FB680022DA85FB680022DA84F868FFF7B9
:105AD0005DFD00BF1037BD4680BD80B485B000AF0E
